{
  "contractName": "SurveyPaymaster",
  "abi": [
    {
      "inputs": [
        {
          "internalType": "uint256",
          "name": "_relayerReward",
          "type": "uint256"
        }
      ],
      "stateMutability": "nonpayable",
      "type": "constructor"
    },
    {
      "inputs": [
        {
          "internalType": "address",
          "name": "user",
          "type": "address"
        }
      ],
      "name": "completeSurvey",
      "outputs": [],
      "stateMutability": "nonpayable",
      "type": "function"
    },
    {
      "inputs": [
        {
          "internalType": "address",
          "name": "user",
          "type": "address"
        }
      ],
      "name": "isSurveyCompleted",
      "outputs": [
        {
          "internalType": "bool",
          "name": "",
          "type": "bool"
        }
      ],
      "stateMutability": "view",
      "type": "function"
    },
    {
      "inputs": [
        {
          "internalType": "uint256",
          "name": "totalFee",
          "type": "uint256"
        }
      ],
      "name": "notifyTransaction",
      "outputs": [],
      "stateMutability": "nonpayable",
      "type": "function"
    },
    {
      "inputs": [
        {
          "internalType": "uint256",
          "name": "totalFee",
          "type": "uint256"
        }
      ],
      "name": "refundExcess",
      "outputs": [],
      "stateMutability": "nonpayable",
      "type": "function"
    },
    {
      "inputs": [],
      "name": "withdrawRelayerReward",
      "outputs": [],
      "stateMutability": "nonpayable",
      "type": "function"
    }
  ],
  "bytecode": "0x608060405234801561001057600080fd5b50604051610767380380610767833981810160405281019061003291906100ba565b336000806101000a81548173ffffffffffffffffffffffffffffffffffffffff021916908373ffffffffffffffffffffffffffffffffffffffff16021790555080600181905550506100e7565b600080fd5b6000819050919050565b61009781610084565b81146100a257600080fd5b50565b6000815190506100b48161008e565b92915050565b6000602082840312156100d0576100cf61007f565b5b60006100de848285016100a5565b91505092915050565b610671806100f66000396000f3fe608060405234801561001057600080fd5b50600436106100575760003560e01c8063089aa96d1461005c57806308bb3135146100785780630e1be27d14610094578063402d7875146100c4578063cdd55833146100ce575b600080fd5b61007660048036038101906100719190610386565b6100ea565b005b610092600480360381019061008d9190610386565b610179565b005b6100ae60048036038101906100a99190610411565b61017c565b6040516100bb9190610459565b60405180910390f35b6100cc6101d2565b005b6100e860048036038101906100e39190610411565b610262565b005b600260003373ffffffffffffffffffffffffffffffffffffffff1673ffffffffffffffffffffffffffffffffffffffff16815260200190815260200160002060009054906101000a900460ff16610176576040517f08c379a000000000000000000000000000000000000000000000000000000000815260040161016d906104f7565b60405180910390fd5b50565b50565b6000600260008373ffffffffffffffffffffffffffffffffffffffff1673ffffffffffffffffffffffffffffffffffffffff16815260200190815260200160002060009054906101000a900460ff169050919050565b60008054906101000a900473ffffffffffffffffffffffffffffffffffffffff1673ffffffffffffffffffffffffffffffffffffffff163373ffffffffffffffffffffffffffffffffffffffff1614610260576040517f08c379a000000000000000000000000000000000000000000000000000000000815260040161025790610589565b60405180910390fd5b565b60008054906101000a900473ffffffffffffffffffffffffffffffffffffffff1673ffffffffffffffffffffffffffffffffffffffff163373ffffffffffffffffffffffffffffffffffffffff16146102f0576040517f08c379a00000000000000000000000000000000000000000000000000000000081526004016102e79061061b565b60405180910390fd5b6001600260008373ffffffffffffffffffffffffffffffffffffffff1673ffffffffffffffffffffffffffffffffffffffff16815260200190815260200160002060006101000a81548160ff02191690831515021790555050565b600080fd5b6000819050919050565b61036381610350565b811461036e57600080fd5b50565b6000813590506103808161035a565b92915050565b60006020828403121561039c5761039b61034b565b5b60006103aa84828501610371565b91505092915050565b600073ffffffffffffffffffffffffffffffffffffffff82169050919050565b60006103de826103b3565b9050919050565b6103ee816103d3565b81146103f957600080fd5b50565b60008135905061040b816103e5565b92915050565b6000602082840312156104275761042661034b565b5b6000610435848285016103fc565b91505092915050565b60008115159050919050565b6104538161043e565b82525050565b600060208201905061046e600083018461044a565b92915050565b600082825260208201905092915050565b7f5375727665795061796d61737465723a205573657220686173206e6f7420636f60008201527f6d706c6574656420746865207375727665790000000000000000000000000000602082015250565b60006104e1603283610474565b91506104ec82610485565b604082019050919050565b60006020820190508181036000830152610510816104d4565b9050919050565b7f5375727665795061796d61737465723a204f6e6c7920746865206f776e65722060008201527f63616e207769746864726177207468652072656c617965722072657761726400602082015250565b6000610573603f83610474565b915061057e82610517565b604082019050919050565b600060208201905081810360008301526105a281610566565b9050919050565b7f5375727665795061796d61737465723a204f6e6c7920746865206f776e65722060008201527f63616e2063616c6c20746869732066756e6374696f6e00000000000000000000602082015250565b6000610605603683610474565b9150610610826105a9565b604082019050919050565b60006020820190508181036000830152610634816105f8565b905091905056fea2646970667358221220740d2381cfb41dd939ea7baf8799fb598175045b08b25356fa8da11f3def6f2e64736f6c63430008110033",
  "immutableReferences": {},
  "source": "// SPDX-License-Identifier: MIT\r\npragma solidity ^0.8.0;\r\n\r\ninterface IPaymaster {\r\n    function notifyTransaction(uint256 totalFee) external;\r\n    function refundExcess(uint256 totalFee) external;\r\n    function withdrawRelayerReward() external;\r\n}\r\n\r\ncontract SurveyPaymaster is IPaymaster {\r\n    address private owner;\r\n    uint256 private relayerReward;\r\n    mapping(address => bool) private completedSurveys;\r\n\r\n    constructor(uint256 _relayerReward) {\r\n        owner = msg.sender;\r\n        relayerReward = _relayerReward;\r\n    }\r\n\r\n    function completeSurvey(address user) external onlyOwner {\r\n        completedSurveys[user] = true;\r\n    }\r\n\r\n    function isSurveyCompleted(address user) external view returns (bool) {\r\n        return completedSurveys[user];\r\n    }\r\n\r\n    function notifyTransaction(uint256 totalFee) external override {\r\n        require(completedSurveys[msg.sender], \"SurveyPaymaster: User has not completed the survey\");\r\n\r\n        // Validate the survey completion off-chain before notifying the Paymaster contract\r\n        // Additional off-chain validation logic can be implemented here\r\n\r\n        // Gas fees are covered, so no action is needed\r\n    }\r\n\r\n    function refundExcess(uint256 totalFee) external override {\r\n        // This contract covers gas fees, so no refund is necessary\r\n    }\r\n\r\n    function withdrawRelayerReward() external override {\r\n        require(msg.sender == owner, \"SurveyPaymaster: Only the owner can withdraw the relayer reward\");\r\n\r\n        // Perform the relayer reward withdrawal logic here\r\n    }\r\n\r\n    modifier onlyOwner() {\r\n        require(msg.sender == owner, \"SurveyPaymaster: Only the owner can call this function\");\r\n        _;\r\n    }\r\n}\r\n",
  "sourcePath": "C:\\Users\\user1\\OneDrive\\Desktop\\Survey-Completion-Paymaster\\contracts\\SurveyPaymaster.sol",
  "compiler": {
    "name": "solc",
    "version": "0.8.17+commit.8df45f5f.Emscripten.clang"
  },
  "schemaVersion": "3.4.11",
  "updatedAt": "2023-06-20T06:37:34.976Z",
  "devdoc": {
    "kind": "dev",
    "methods": {},
    "version": 1
  },
  "userdoc": {
    "kind": "user",
    "methods": {},
    "version": 1
  }
}